:020000007F2A55
:10000800FF00030E8301BC000A08BD008A017008C6
:10001800A3007C08A2007D08A1000B1D182806304B
:100028008100803087060B118B1C33280030250691
:10003800031D202800302406031D332820308B069A
:1000480088130130A4000030A5000230FC004B30BA
:10005800FD00FD0B2D28FC0B2D288B103D28A4013D
:10006800A5010230FC004B30FD00FD0B3928FC0BCC
:1000780039282308F0002208FC002108FD003D086B
:0C0088008A003C0E8300FF0E7F0E090072
:0E009400F201F101F001F801F3010030080063
:1000A2007B15FB1F5B280130F300F201F101F00127
:0800B200FA0DF20CFF3008000A
:0800BA00FA1FF21300300800E8
:1000C2007B14FB1F6C28F201FA1FFF30F200F100D3
:0A00D200F000FA0DF20CFF300800F8
:0600DC00FB15FF300800D7
:1000E200A0017208031D86287108F2007008F10051
:1000F200F001A0157208031D86287108F200F101B3
:10010200A01120167208031994282008F302031D77
:10011200031C98280310F21B9C28F00DF10DF20D20
:10012200F30B8C2898280130FC004A209F280230CB
:0E013200FC0051209F280430FC005D200800D6
:10014000FB14FB1FAA28FF30F300F200F100F000BF
:08015000FA0DF20CFF3008006B
:100158000E3083120313FD00FD0BB02800000800C9
:1001680083120313F801F9011030FC00710DF80D2A
:10017800F90D7408F8027508031C750FF9020318C5
:10018800CC287408F80775080318750FF9070310C9
:0A019800F00DF10DFC0BBA28080071
:0E01A2008312031332088A003108820008001D
:1001B00083120313FB01FC01FA01730803191729C9
:1001C000F2178E30F302F31BE8280319E8281A29E6
:1001D000F309F30A08307302031CFD28F300F10D44
:1001E0007208F100F20108307302031CFD28F10DC2
:1001F000F1017308031D031005297308031905296C
:100200000310F20CF10CF30B00297B1B711C0F295E
:10021000031C0F29F10A0319F20AF21B2629FA1FFF
:100220002929F209F109F10A0319F20A2929F2012F
:10023000F10129297B14FB1F2C29F201FA1F2C291B
:10024000FF30F200F100FA0DF20C2C290130FC0015
:100250002E290030FC002E29FF30FC00FC08031979
:0E026000322961207108F0007208F1000800D8
:10026E008312031387160A30F4000030F5003A08A3
:10027E00F0003B08F100B4207808F0007908F10096
:10028E007008B3007108B4007008263E84000008A0
:10029E0088001A30FC00F830FD00FD0B5429FC0BD1
:0A02AE00542900008712880108009F
:1002B8008312031307160A30F4000030F5003A08D9
:1002C800F0003B08F100B4207008B8007108B900CC
:1002D8007008263E8400000888000D30FC00FB30C2
:1002E800FD00FD0B7529FC0B7529000000000712A5
:0402F8008801080071
:1002FC00831203137408003A031D99297508003AF8
:10030C00031D99297608003A031D99297708003AAC
:10031C00031D9929FF30F000FF30F1007F30F2000F
:10032C00FF30F300342A8312031377080319282AA9
:10033C00730803192B2A720876068039FA00F21713
:10034C00F617A0017208F8007108FC007008FD0097
:10035C007408FD027508031C750FFC027608031C5B
:10036C00760FF802F801FC01FD01031CC4290310EF
:10037C00F20CF10CF00CF80C0130A0007708F30231
:10038C00031CCE297E302007F30703182E2AD3290D
:10039C007E302007F307031C312A1830FA07FD0DB5
:1003AC00FC0DF80DF00DF10DF20DA00D7408F0021E
:1003BC007508031C750FF1027608031C760FF20208
:1003CC00760DA004201CEC297D14F7297408F00785
:1003DC0075080318750FF10776080318760AF207EB
:1003EC007D10FA031F307A05031DD5297B1B7D1C5C
:1003FC001E2A0310F00DF10DF20DA00D7408F00281
:10040C007508031C750FF1027608031C760FF202B7
:10041C00760D20040139FD070318FC0A0319F80AAC
:10042C00031D1E2AF80CFC0CFD0CF30A03192E2AD2
:10043C00FA1FF8137808F2007C08F1007D08F00030
:10044C000030332A01306E20332A02304A20332AFE
:0E045C000430A020332A083051200000080090
:10046A00D1208A110A128000840AB10A0319B20A39
:08047A00F003031D352A080000
:10048200831203139F01C0309F043009F0007008EB
:1004920083169F051F179F1783123E08F000F00D69
:1004A2007010F00D7010F00D701070089F041F1482
:1004B200AC201F151F1D5F2A00005B2A1F101E089B
:1004C200F100F00183161E08F0040030F104080068
:1004D200831203137008F8007108F000F101F201B1
:1004E200F301FB01FC019630F300FA017008F10000
:0C04F2007808F000F801F2017120080009
:1004FE0020238B170B130B168B1083160313061466
:10050E0083120614831688018312880183168701CD
:10051E0083128701831605148B1206308312810015
:10052E008130831681008312BE014122700883122E
:10053E00B6007108B70069226F30F4001230F50072
:10054E000330F6008030F7007E21D8207008BA0004
:10055E007108BB0000307102031DB72A0030700213
:10056E00031CC52A00303B02031DBF2A18303A0275
:10057E000318C52A870107148B12022B00303B0289
:10058E00031DCB2A19303A02031CD92A3B08003C22
:10059E00031DD32A3A081C3C031CD92A8701871451
:1005AE008B12022B00303B02031DDF2A1D303A0254
:1005BE00031CED2A3B08003C031DE72A3A081F3CAA
:1005CE00031CED2A870107158B12022B3B08003CFA
:1005DE00031DF32A3A081F3C0318012B3B08003C6D
:1005EE00031DFB2A3A08643C031C012B8701871567
:1005FE008B16022B8B12B5010530350203180B2B0F
:0C060E005C213721B50A032B9A2A0C2B23
:10064000243084000D3083120313F0001230B10007
:080650000330B200352208005E
:04062400003400346A
:100628003F3406345B344F3466346D347D340734DC
:040638007F346F3468
:02063C000F3479
:02400E004A2F37
:00000001FF
